:0400000011EF3FF0CD
:107E2200076A000191EF3FF0C580C5B01BEF3FF03C
:107E32001DEF3FF016EF3FF01200C584C5B424EFEA
:107E42003FF026EF3FF01FEF3FF01200C582C5B2B0
:107E52002DEF3FF02FEF3FF028EF3FF01200036EBF
:107E620015EC3FF003C0C9FF9E969EA63BEF3FF084
:107E72003DEF3FF036EF3FF001C0C9FF9E969EA650
:107E820045EF3FF047EF3FF040EF3FF002C0C9FF40
:107E92009E969EA64FEF3FF051EF3FF04AEF3FF024
:107EA2009E961EEC3FF01200026E15EC3FF002505F
:107EB200FE0BC96E9E969EA661EF3FF063EF3FF008
:107EC2005CEF3FF001C0C9FF9E969EA66BEF3FF0AC
:107ED2006DEF3FF066EF3FF027EC3FF002500109F3
:107EE200C96E9E969EA678EF3FF07AEF3FF073EF51
:107EF2003FF0C5869E969EA681EF3FF083EF3FF04E
:107F02007CEF3FF09E96C58AC5889EA68BEF3FF018
:107F12008DEF3FF086EF3FF01EEC3FF0C9501200AC
:107F2200700ED36E030E046E980EE82EFED7042E4A
:107F3200FCD7000E956E000E8C6E9368000E966E46
:107F4200000E8D6E000E946E000E8B6E280EC66EA5
:107F5200000EC56EC00EC76E130EC86E000E9E6E6A
:107F62001A0E046EF80EE82EFED7042EFCD700D0AF
:107F7200010E016E07C002F0100E30EC3FF0000E51
:107F8200016E100E55EC3FF0066E000E016E050EEE
:107F9200026E100E30EC3FF0072A090E0764D4EF90
:107FA2003FF0D6EF3FF0D8EF3FF0000E076E0650DD
:107FB200D8A4DEEF3FF0E0EF3FF0E3EF3FF08B803D
:107FC200E4EF3FF08B908B840B0E056E260E046E51
:107FD2005E0EE82EFED7042EFCD7052EFAD78B9420
:107FE2000B0E056E260E046E5E0EE82EFED7042ED4
:0E7FF200FCD7052EFAD7B1EF3FF000EF00F0FC
:020000040020DA
:08000000FFFFFFFFFFFFFFFF00
:020000040030CA
:0E00000000091F1EFF8181FF0FC00FE00F409F
:00000001FF
