:0400000017EF3FF0C7
:107E2E00076A000198EF3FF0C580C5B021EF3FF023
:107E3E0023EF3FF01CEF3FF01200C584C5B42AEFCC
:107E4E003FF02CEF3FF025EF3FF01200C582C5B298
:107E5E0033EF3FF035EF3FF02EEF3FF01200036EA1
:107E6E001BEC3FF00350FE0BC96E9E969EA642EF92
:107E7E003FF044EF3FF03DEF3FF001C0C9FF9E964B
:107E8E009EA64CEF3FF04EEF3FF047EF3FF002C0A3
:107E9E00C9FF9E969EA656EF3FF058EF3FF051EF6A
:107EAE003FF09E9624EC3FF01200026E1BEC3FF06A
:107EBE000250FE0BC96E9E969EA668EF3FF06AEFCB
:107ECE003FF063EF3FF001C0C9FF9E969EA672EF92
:107EDE003FF074EF3FF06DEF3FF02DEC3FF00250AE
:107EEE000109C96E9E969EA67FEF3FF081EF3FF08F
:107EFE007AEF3FF0C5869E969EA688EF3FF08AEFFA
:107F0E003FF083EF3FF09E96C58AC5889EA692EFFE
:107F1E003FF094EF3FF08DEF3FF024EC3FF0C9506F
:107F2E001200700ED36E030E046E980EE82EFED75E
:107F3E00042EFCD7000E946E000E8B6E93809382EF
:107F4E00280EC66E000EC56EC00EC76E140EC86E1D
:107F5E00000E9E6E1A0E046EF80EE82EFED7042E3C
:107F6E00FCD700D0010E016E07C002F0100E36ECE9
:107F7E003FF0000E016E100E5CEC3FF0066E000E30
:107F8E00016E000E026E100E36EC3FF0072A090E3F
:107F9E000764D4EF3FF0D6EF3FF0D8EF3FF0000E7E
:107FAE00076E0650D8A4DEEF3FF0E0EF3FF0E3EFB0
:107FBE003FF08B80E4EF3FF08B908B840B0E056EC1
:107FCE00260E046E5E0EE82EFED7042EFCD7052E6E
:107FDE00FAD78B940B0E056E260E046E5E0EE82EEF
:107FEE00FED7042EFCD7052EFAD7B1EF3FF000EFE7
:027FFE0000F091
:020000040020DA
:08000000FFFFFFFFFFFFFFFF00
:020000040030CA
:0E00000000091F1EFF8181FF0FC00FE00F409F
:00000001FF
