:0400000013EF3FF0CB
:107E2600076A0001A1EF3FF0C580C5B01DEF3FF026
:107E36001FEF3FF018EF3FF01200C584C5B426EFE0
:107E46003FF028EF3FF021EF3FF01200C582C5B2A8
:107E56002FEF3FF031EF3FF02AEF3FF01200938013
:107E66009382280EC66E000EC56EC00EC76E780EC3
:107E7600C86E000E9E6E1200036E17EC3FF00350A4
:107E8600FE0BC96E9E969EA64BEF3FF04DEF3FF060
:107E960046EF3FF001C0C9FF9E969EA655EF3FF004
:107EA60057EF3FF050EF3FF002C0C9FF9E969EA6E7
:107EB6005FEF3FF061EF3FF05AEF3FF09E9620EC08
:107EC6003FF01200026E17EC3FF00250FE0BC96E37
:107ED6009E969EA671EF3FF073EF3FF06CEF3FF07A
:107EE60001C0C9FF9E969EA67BEF3FF07DEF3FF057
:107EF60076EF3FF029EC3FF002500109C96E9E96DD
:107F06009EA688EF3FF08AEF3FF083EF3FF0C586ED
:107F16009E969EA691EF3FF093EF3FF08CEF3FF0D9
:107F26009E96C58AC5889EA69BEF3FF09DEF3FF0C3
:107F360096EF3FF020EC3FF0C9501200700ED36E62
:107F4600100E046E940EE82EFED7042EFCD700D039
:107F5600000E946E000E8B6E32EC3FF09C0E046E9B
:107F6600D70EE82EFED7042EFCD700F0010E016EC8
:107F760007C002F0100E3FEC3FF0000E016E100E2F
:107F860065EC3FF0066E000E016E000E026E100EDE
:107F96003FEC3FF0072A090E0764D4EF3FF0D6EF17
:107FA6003FF0D8EF3FF0000E076E0650D8A4DEEF84
:107FB6003FF0E0EF3FF0E3EF3FF08B84E4EF3FF07C
:107FC6008B948B823D0E056EE10E046E400EE82EFC
:107FD600FED7042EFCD7052EFAD78B923D0E056EE2
:107FE600E10E046E400EE82EFED7042EFCD7052EB9
:0A7FF600FAD7B1EF3FF000EF00F002
:020000040020DA
:08000000FFFFFFFFFFFFFFFF00
:020000040030CA
:0E000000240E3F1EFF8181FF0FC00FE00F4056
:00000001FF
