:0400000016EF3FF0C8
:107E2C00076A000197EF3FF0C580C5B020EF3FF027
:107E3C0022EF3FF01BEF3FF01200C584C5B429EFD1
:107E4C003FF02BEF3FF024EF3FF01200C582C5B29C
:107E5C0032EF3FF034EF3FF02DEF3FF01200036EA6
:107E6C001AEC3FF00350FE0BC96E9E969EA641EF96
:107E7C003FF043EF3FF03CEF3FF001C0C9FF9E964F
:107E8C009EA64BEF3FF04DEF3FF046EF3FF002C0A8
:107E9C00C9FF9E969EA655EF3FF057EF3FF050EF6F
:107EAC003FF09E9623EC3FF01200026E1AEC3FF06E
:107EBC000250FE0BC96E9E969EA667EF3FF069EFCF
:107ECC003FF062EF3FF001C0C9FF9E969EA671EF96
:107EDC003FF073EF3FF06CEF3FF02CEC3FF00250B3
:107EEC000109C96E9E969EA67EEF3FF080EF3FF093
:107EFC0079EF3FF0C5869E969EA687EF3FF089EFFF
:107F0C003FF082EF3FF09E96C58AC5889EA691EF02
:107F1C003FF093EF3FF08CEF3FF023EC3FF0C95074
:107F2C001200700ED36E100E046E940EE82EFED757
:107F3C00042EFCD700D0000E946E000E8B6E938036
:107F4C009382280EC66E000EC56EC00EC76E780EDC
:107F5C00C86E000E9E6E9C0E046ED70EE82EFED7D9
:107F6C00042EFCD700F0010E016E07C002F0100EBB
:107F7C0035EC3FF0000E016E100E5BEC3FF0066E20
:107F8C00000E016E080E026E100E35EC3FF0072A43
:107F9C00090E0764D4EF3FF0D6EF3FF0D8EF3FF077
:107FAC00000E076E0650D8A4DEEF3FF0E0EF3FF076
:107FBC00E3EF3FF08B80E4EF3FF08B908B843D0E32
:107FCC00056EE10E046E400EE82EFED7042EFCD793
:107FDC00052EFAD78B943D0E056EE10E046E400E05
:107FEC00E82EFED7042EFCD7052EFAD7B1EF3FF0C2
:047FFC0000EF00F0A2
:020000040020DA
:08000000FFFFFFFFFFFFFFFF00
:020000040030CA
:0E000000240E3F1EFF8181FF0FC00FE00F4056
:00000001FF
